:020000040800F2
:1000000000000120C5020008CB020008CF02000852
:1000100041030008450300088D03000800000000AC
:10002000000000000000000000000000D5030008F0
:10003000D903000800000000DD030008B119000822
:10004000F1030008F1030008F1030008F1030008C0
:10005000F1030008F10300085512000871120008AE
:10006000F1030008F1030008F1030008F1030008A0
:10007000F1030008F1030008F1030008F103000890
:10008000F1030008F1030008F1030008000000007C
:10009000000000000000000000000000F103000864
:1000A000F1030008F1030008F1030008F103000860
:1000B000F1030008F1030008F1030008F103000850
:1000C000F1030008F1030008F1030008F103000840
:1000D000F1030008F1030008F1030008000000002C
:1000E000F1030008F1030008F1030008000000001C
:1000F000000000000000000000000000F103000804
:1001000000000000F1030008F1030008F1030008FB
:1001100000000000000000000000000000000000DF
:10012000F1030008F1030008F1030008F1030008DF
:10013000F1030008000000000000000000000000C3
:10014000000000000000000000000000F1030008B3
:10015000F1030008F1030008F1030008F1030008AF
:10016000F1030008F1030008000000000000000097
:10017000000000000000000000000000000000007F
:1001800000000000F1030008000000000000000073
:10019000F103000800B583B000F040FE384B394A47
:1001A0001360394A1360394900E02146384B9942BF
:1001B0000BD20A684B6801F10C0488689842F4D9A4
:1001C0001168196004330432F8E72E4B1A68314B7A
:1001D0009A4200D0FEE72C4B1A682F4B9A42F9D175
:1001E000274B2E4A13602E4A13602E4B05E0002049
:1001F000106004329342FAD80B462B4A934204D241
:10020000194651F8082B5B68F4E7244B1B6813B9B7
:10021000234B1B6803B1FEE701F0F4FC694601A81B
:1002200000F08EFD214C224BE41AA4100025AC42B4
:1002300014DC204C204BE41AA4100025AC4213DC43
:100240000099019801F0FEFC05461C4C1C4BE41A79
:10025000A410002C0EDC284600F044FD144B53F88B
:10026000253098470135E2E7134B53F8253098477E
:100270000135E3E7013C124B53F824309847E8E797
:10028000BABADECA0000002074000020F40300089F
:100290000C04000878563412325476987800002006
:1002A000600100200C0400081C0400081C04000865
:1002B0001C0400081C0400081C0400081C0400089E
:1002C0001C04000808B5FFF765FF00BEFEE71EF03E
:1002D000040F0CBFEFF30880EFF309807146414A29
:1002E00010472DE9F04182B004468846124B5E6B00
:1002F0009F6B9D6A1B6B13F0020F03D00E4BDB6AE2
:10030000002B0CDB0D4800F02DFDCDF800803B46A6
:1003100032462946204600F08DFD00BEFEE74BF632
:10032000AB6100F001FE0028ECD0034B4FF000421F
:10033000DA6202B0BDE8F08100ED00E05828000864
:1003400000BEFEE71EF0040F0CBFEFF30880EFF3D2
:1003500009807146244A10472DE9F04182B00446D5
:100360008846084B5E6B9F6B9D6A074800F0FAFC5D
:10037000CDF800803B4632462946204600F05AFD23
:1003800000BEFEE700ED00E0682800081EF0040F44
:100390000CBFEFF30880EFF309807146134A104752
:1003A0002DE9F04182B004468846084B5E6B9F6B96
:1003B0009D6A074800F0D6FCCDF800803B463246E7
:1003C0002946204600F036FD00BEFEE700ED00E0C5
:1003D0007428000800BEFEE700BEFEE700BEFEE790
:1003E00070470000E302000859030008A103000859
:0403F00000BEFEE766
:1003F40004C10208000000207800002004C10208A3
:1004040000000010000000107800002064010020AB
:080414000000001000000010C0
:1004200010B50446074B1868074BA3FB0030800942
:1004300000F090F8002221464FF0FF3000F044F821
:10044000002010BD0C000020D34D621008B50B4BEE
:100450001A6842F400721A601A6842F480621A60E4
:100460001A6842F480721A60032000F00FF80F201F
:10047000FFF7D6FF01F088FC002008BD003C0240D9
:10048000014B1868704700BF5801002010B50446A2
:10049000C31E042B0FD80A4AD36823F4E0631B045D
:1004A0001B0C240204F4E064234343F0BF6343F4D1
:1004B0000033D36010BDA421024800F049FCEAE7F4
:1004C00000ED00E08826000870B505460C4616468B
:1004D0000F2A25D80F2C28D81B4BDB68C3F3022327
:1004E000C3F10702042A28BF0422191D062921D9B5
:1004F000033B4FF0FF3101FA02F224EA02049C4070
:1005000001FA03F326EA03063443002D14DB240129
:10051000E4B205F1604505F5614585F8004370BD1D
:10052000BC210A4800F014FCD4E7BD21074800F0C4
:100530000FFCD1E70023DCE705F00F052401E4B24E
:10054000034B5C55EBE700BF00ED00E08826000898
:1005500014ED00E00138B0F1807F0AD2064B5860FC
:10056000064AF02182F823100020986007221A60C2
:1005700070470120704700BF10E000E000ED00E090
:1005800010B50446042800D038B9042C0BD0094A11
:10059000136823F00403136010BD40F2B311064842
:1005A00000F0D6FBF1E7034A136843F0040313603D
:1005B000F2E700BF10E000E08826000830B583B005
:1005C000044603680F2B29D8236813F0010F3DD090
:1005D0006368012B01D9052B25D1A34B9B6803F040
:1005E0000C03042B29D0A04B9B6803F00C03082BB1
:1005F0001ED022799D4B1A706368002B50D0FFF7F4
:100600003FFF0546984B1B6813F4003F1ED1FFF7D0
:1006100037FF401B6428F5D90320E3E1F521944816
:1006200000F096FBD0E7FA21914800F091FBD4E767
:100630008D4B5B6813F4800FDBD08B4B1B6813F47E
:10064000003F03D06368002B00F0C981236813F0DA
:10065000020F5DD0E368012B31D823691F2B34D8FA
:10066000814B9B6813F00C0F3AD07F4B9B6803F0D3
:100670000C03082B2FD0E368002B74D07D4B012294
:100680001A60FFF7FDFE0546774B1B6813F0020F5B
:100690005AD1FFF7F5FE401B0228F5D90320A1E14E
:1006A000FFF7EEFE0546704B1B6813F4003FCDD0FC
:1006B000FFF7E6FE401B6428F5D9032092E14FF4D2
:1006C00096716B4800F044FBC7E740F22D11684873
:1006D00000F03EFBC4E7644B5B6813F4800FCAD1A3
:1006E000614B1B6813F0020F04D0E368012B01D0AB
:1006F000012077E15C48036823F0F8032169F822C0
:1007000092FAA2F2B2FA82F201FA02F21343036001
:10071000236813F0080F50D06369012B35D8636943
:10072000002B38D0544B01221A60FFF7A9FE054672
:100730004D4B5B6F13F0020F3FD1FFF7A1FE401B43
:100740000228F5D903204DE14748036823F0F80358
:100750002169F82292FAA2F2B2FA82F201FA02F2C6
:1007600013430360D4E7434B00221A60FFF788FE6F
:1007700005463D4B1B6813F0020FC9D0FFF780FE02
:10078000401B0228F5D903202CE140F26D113848B6
:1007900000F0DEFAC3E7384B00221A60FFF770FE64
:1007A0000546314B5B6F13F0020F06D0FFF768FE72
:1007B000401B0228F5D9032014E1236813F0040F2D
:1007C00060D0A368012B01D9052B1FD10023019311
:1007D000254B1A6C42F080521A641B6C03F0805354
:1007E0000193019B254A136843F480731360FFF75C
:1007F00047FE0546214B1B6813F4807F0CD1FFF7A1
:100800003FFE401B0228F5D90320EBE040F2971190
:10081000174800F09DFAD9E7227A194B1A70A3689D
:1008200083B1FFF72DFE05460F4B1B6F13F0020F30
:1008300028D1FFF725FE401B41F288339842F3D9B7
:100840000320CFE0FFF71CFE0546074B1B6F13F09C
:10085000020F17D0FFF714FE401B41F28833984275
:10086000F3D90320BEE000BF003802400238024046
:10087000CC26000800004742800E4742007000402E
:1008800070380240A369022B39D8A369002B00F00D
:10089000A880564A926802F00C02082A00F0A48050
:1008A000022B40F08880E36913B1B3F5800F2CD19F
:1008B000236A3F2B2FD8636A323BB3F5BF7F30D812
:1008C000A36A022B05D0042B03D0062B01D0082BE2
:1008D0002DD1E36A043B0B2B2FD8454B00221A6025
:1008E000FFF7CEFD0546414B1B6813F0007F2AD071
:1008F000FFF7C6FD401B0228F5D9032072E04FF434
:10090000E6713C4800F024FABFE740F2D5113948BF
:1009100000F01EFACCE74FF4EB71364800F018FAFD
:10092000C9E740F2D711334800F012FAC8E74FF494
:10093000EC71304800F00CFACBE740F2D9112D48A9
:1009400000F006FAC9E7E369226A1343616A47F6D1
:10095000C07292FAA2F2B2FA82F201FA02F21343E0
:10096000A26A5208013A4FF4403191FAA1F1B1FA6A
:1009700081F18A401343E16A4FF0706292FAA2F269
:10098000B2FA82F201FA02F21343184A5360184B8A
:1009900001221A60FFF774FD0446144B1B6813F024
:1009A000007F06D1FFF76CFD001B0228F5D903205C
:1009B00018E0002016E00E4B00221A60FFF760FDE1
:1009C00004460A4B1B6813F0007F06D0FFF758FD62
:1009D000001B0228F5D9032004E0002002E00120DA
:1009E00000E0002003B030BD0120FBE700380240EA
:1009F00060004742CC2600081F4B9B6803F00C03A5
:100A0000082B36D11C4B586800F03F005B6813F48C
:100A1000800F1ED0194AB2FBF0F2174B586847F608
:100A2000C073184093FAA3F3B3FA83F3D84000FBE2
:100A300002F0114B5B6803F440334FF4403292FAFA
:100A4000A2F2B2FA82F2D34001335B00B0FBF3F0C2
:100A500070470A4AB2FBF0F2074B586847F6C0737A
:100A6000184093FAA3F3B3FA83F3D84000FB02F0E3
:100A7000DFE70248704700BF003802400024F4005E
:100A800070B504460D460368013B0E2B11D8072DA7
:100A900015D88C4B1B6803F00F03AB4215D2EBB299
:100AA000884A1370136803F00F03AB420DD0012086
:100AB00070BD40F23721844800F04AF9E7E74FF46F
:100AC0000E71814800F044F9E3E7236813F0020F48
:100AD00018D0A3687BB1802B0DD0902B0BD0A02B0E
:100AE00009D0B02B07D0C02B05D0D02B03D0E02BE2
:100AF00001D0F02B37D1754A936823F0F003A16839
:100B00000B439360236813F0010F73D06368032BCA
:100B10002FD86368012B32D09A1E012A36D96B4A2E
:100B2000126812F0020F00F0CA8068498A6822F049
:100B3000030213438B60FFF7A3FC06466368012B97
:100B40002BD0022B38D0032B45D0604B9B6813F081
:100B50000C0F4FD0FFF794FC801B41F28833984272
:100B6000F3D90320A4E740F24F21574800F0F0F8F2
:100B7000C1E740F25621544800F0EAF8C9E7534A69
:100B8000126812F4003FD0D1012091E74F4A126859
:100B900012F0007FC9D101208AE74C4B9B6803F01B
:100BA0000C03042B26D0FFF76BFC801B41F288332B
:100BB0009842F2D903207BE7444B9B6803F00C0377
:100BC000082B17D0FFF75CFC801B41F2883398425A
:100BD000F2D903206CE73D4B9B6803F00C030C2B10
:100BE00008D0FFF74DFC801B41F288339842F2D9C0
:100BF00003205DE7334B1B6803F00F03AB4209D9B9
:100C0000EAB2304B1A701B6803F00F03AB4201D0FD
:100C100001204DE7236813F0040F14D0E3685BB1A3
:100C2000B3F5805F08D0B3F5A05F05D0B3F5C05F22
:100C300002D0B3F5E05F36D1244A936823F4E05341
:100C4000E1680B439360236813F0080F15D0236904
:100C50005BB1B3F5805F08D0B3F5A05F05D0B3F505
:100C6000C05F02D0B3F5E05F23D1184A936823F444
:100C70006043216943EAC1039360FFF7BDFE134B54
:100C80009B6803F0F003F02292FAA2F2B2FA82F229
:100C9000D3400F4AD35CD8400E4B18600F20FFF7AB
:100CA000BFFB002004E74FF42D71074800F050F817
:100CB000C2E740F2BB21044800F04AF8D5E7012022
:100CC000F6E600BF003C0240CC2600080038024097
:100CD000BC2600080C000020014B1868704700BFBC
:100CE0000C000020FEE7000008B5034800F052F8B1
:100CF0000120FFF7F7FF00BFFC26000808B50346F8
:100D00000C4A12685AB10B4A1068033323F00303EC
:100D10000344094A934206D8064A136008BD054AAF
:100D200006491160EFE701F031F80C2303604FF042
:100D3000FF30F3E77C00002000FC0020640100206D
:100D400001230360014B0B60704700BF04000020CB
:100D500008B50A460146024800F004F8FFF7C4FF50
:100D6000102700080FB400B583B004AB53F8042B70
:100D700001938021064801F043F8002803DD014675
:100D8000034800F047F803B05DF804EB04B0704787
:100D90008400002010B5044600F0FEFF0146204606
:100DA00000F038F80121024800F034F810BD00BF0F
:100DB000D42700082DE9F04385B004460F4643567A
:100DC0000BB10E461EE0042528462146ABBE044664
:100DD000384605B0BDE8F08314F9011B04AA1A4493
:100DE00002F8101C0133AB42F6D304AA13440022CC
:100DF00003F8102C4FF00408E94640464946ABBEC4
:100E00008046761B002EE3D03546102E28BF1025D5
:100E10000023E8E708B5FFF7CDFF08BD08B500F0EF
:100E200093F8024A024B9A6008BD00BF0000000818
:100E300000ED00E0F8B504460D4617461E4627486B
:100E4000FFF790FF21682648FFF78CFF616825486F
:100E5000FFF788FFA1682448FFF784FFE168234873
:100E6000FFF780FF21692248FFF77CFF6169214875
:100E7000FFF778FFA1692048FFF774FFE1691F4879
:100E8000FFF770FF1E48FFF76DFF29461D48FFF76B
:100E900069FF1D4CE16A1D48FFF764FF216B1C4888
:100EA000FFF760FFE16B1B48FFF75CFF15F0800F59
:100EB0000AD115F4004F0CD11748FFF753FF0699DC
:100EC0001648FFF74FFFF8BD39461548FFF74AFFB0
:100ED000EFE731461348FFF745FFEDE73C270008F1
:100EE0004C2700085C2700086C2700087C270008B6
:100EF0008C2700089C270008AC270008BC270008A6
:100F0000CC270008D827000800ED00E0E8270008FB
:100F1000F82700080828000838280008402800089A
:100F2000182800082828000883691A888A4201D0F6
:100F3000002070470268033A012A03D80233836114
:100F400001207047002070470C4B1A6842F00102E4
:100F50001A60002199601A6822F0847222F48032AB
:100F60001A60074A5A601A6822F480221A60D9600F
:100F7000044B4FF000629A60704700BF0038024097
:100F80001030002400ED00E0224B9B6803F00C03BE
:100F9000042B14D0082B16D01BB11F4B1F4A1A600C
:100FA00002E01D4B1D4A1A601A4B9B68C3F30313E2
:100FB0001B4AD15C184A1368CB4013607047164B2C
:100FC000164A1A60F0E7134B5A685B6803F03F0358
:100FD00012F4800F13D0114AB2FBF3F20D4B5B6891
:100FE000C3F3881303FB02F30A4A5268C2F30142B7
:100FF00001325200B3FBF2F3074A1360D4E7074A09
:10100000B2FBF3F2034B5B68C3F3881303FB02F3F9
:10101000EAE700BF003802400C0000200024F40082
:101020008428000808B501220721104600F02EF997
:1010300001220821104600F029F901220921104659
:1010400000F024F901220A21104600F01FF90122C4
:101050000C21104600F01AF901220D21104600F073
:1010600015F901220E21104600F010F901220F217E
:10107000104600F00BF9012300220721184600F06A
:1010800047F9012300220821184600F041F9012305
:1010900000220921184600F03BF9012300220A2111
:1010A000184600F035F9012300220C21184600F003
:1010B0002FF9012300220D21184600F029F9012300
:1010C00000220E21184600F023F9012300220F21EF
:1010D000184600F01DF908BD2DE9F04107460D4600
:1010E00090461E4600242EE000F0A7FB3A5DD20990
:1010F0000721012000F0AEF900220821012000F0B4
:10110000A9F900220921012000F0A4F900220A21F6
:10111000012000F09FF900220C21012000F09AF933
:1011200000220D21012000F095F900220E2101205E
:1011300000F090F900220F21012000F08BF97D20B2
:1011400000F01EFC0134AC4215D23378012B12D1D1
:101150000A4BA3FB04235B094FF4FA7202FB13430F
:10116000002BC3D198F80030012BBDD0022BBDD18C
:1011700000F09DFBBAE7BDE8F08100BFD34D6210DF
:1011800030B483080A4A023352F8234000F00300C7
:1011900080000F25854024EA050442F8234052F8D8
:1011A00023408140214342F8231030BC704700BFE8
:1011B0000038014011B1012908D0704708490B6877
:1011C000012202FA00F018430860704704490B68D6
:1011D000012202FA00F023EA00000860704700BF15
:1011E000003C014001290FD011B1022918D07047ED
:1011F000114B9968012202FA00F001439960DA6804
:1012000022EA0000D86070470B4BD968012202FA2D
:1012100000F00143D9609A6822EA000098607047A4
:10122000054AD168012303FA00F00143D1609368B5
:1012300018439060704700BF003C0140014B1860AC
:10124000704700BF04010020014B5860704700BF89
:101250000401002008B5044B1B689847034A5369F2
:1012600043F00103536108BD04010020003C01402C
:1012700008B5044B5B689847034A536943F002037F
:10128000536108BD04010020003C014010B4012856
:1012900017D018B1022826D010BC7047A1F10D0359
:1012A000DBB2022BF8D9174B1868490003248C4095
:1012B00020EA04001860186802FA01F1014319607D
:1012C000EAE78B1EDBB2022BE6D90F4B1868490008
:1012D00003248C4020EA04001860186802FA01F127
:1012E00001431960D8E7094B1868490003248C4072
:1012F00020EA04001860186802FA01F1014319603D
:10130000CAE700BF0000024000040240000802409B
:1013100030B4012821D018B102283AD030BC70472F
:10132000A1F10D00C0B20228F8D926484468012571
:101330008D4024EA0504446044688A4022434260A8
:101340008268490003248C4022EA04028260826899
:1013500003FA01F111438160E0E7881EC0B2022860
:10136000DCD91948446801258D4024EA050444600D
:1013700044688A40224342608268490003248C40CA
:1013800022EA04028260826803FA01F1114381605B
:10139000C4E70E48446801258D4024EA05044460F2
:1013A00044688A40224342608268490003248C409A
:1013B00022EA04028260826803FA01F1114381602B
:1013C000ACE700BF000002400004024000080240F9
:1013D00010B4012817D018B1022826D010BC7047CD
:1013E000A1F10D03DBB2022BF8D9174BD8684900E5
:1013F00003248C4020EA0400D860D86802FA01F186
:101400000143D960EAE78B1EDBB2022BE6D90F4B12
:10141000D868490003248C4020EA0400D860D868CA
:1014200002FA01F10143D960D8E7094BD8684900B5
:1014300003248C4020EA0400D860D86802FA01F145
:101440000143D960CAE700BF000002400004024027
:101450000008024010B4012815D018B1022822D08B
:1014600010BC7047A1F10D03DBB2022BF8D9144B6D
:10147000586901248C4020EA0400586158698A4068
:1014800002435A61ECE78B1EDBB2022BE8D90D4B0D
:10149000586901248C4020EA0400586158698A4048
:1014A00002435A61DCE7084B586901248C4020EA6A
:1014B0000400586158698A4002435A61D0E700BF6E
:1014C000000002400004024000080240072926D81C
:1014D000012810D010B1022819D07047A1F10D03D6
:1014E000DBB2022B49D92548036A890002FA01F1CF
:1014F0000B43036270478B1EDBB2022B3DD92048A1
:10150000036A890002FA01F10B43036270471D4828
:10151000036A890002FA01F1194301627047A1F1DF
:101520000803DBB2072B28D8012811D010B10228FC
:101530001BD07047A1F10D03DBB2022B1DD90F4860
:10154000436A0839890002FA01F119434162704780
:101550008B1EDBB2022B10D90948436A0839890077
:1015600002FA01F11943416270470448436A08399D
:10157000890002FA01F119434162704700000240FC
:101580000004024000080240084A136843F00103C7
:101590001360064B1B6813F0020FFAD0034B9A68D6
:1015A00022F003029A609A689A60704700380240FD
:1015B000032822D8DFE800F0020A121A0F48036B52
:1015C000012202FA01F11943016370470B48436B92
:1015D000012202FA01F11943416370470748036C85
:1015E000012202FA01F11943016470470348436C78
:1015F000012202FA01F119434164704700380240A8
:1016000010B44409064951F8243000F01F000122AB
:1016100002FA00F0184341F8240010BC704700BFE4
:1016200000E100E0054B1870054B064A1A60000205
:1016300040F0BF6040F40030186070474401002063
:101640000CED00E00000FA051E4B1B78033B042B59
:1016500036D8DFE803F0030C17222D000A01D2B2BE
:1016600000F1604000F5614080F8002370471201EE
:1016700042EA4112D2B200F1604000F5614080F8C8
:1016800000237047120142EA8112D2B200F1604099
:1016900000F5614080F800237047120142EAC11250
:1016A000D2B200F1604000F5614080F8002370473D
:1016B0001201D2B200F1604000F5614080F80023D1
:1016C000704700BF44010020144B1A6822F040020A
:1016D0001A601A6822F400621A601A6822F038024E
:1016E0001A601A6842F002021A601A6822F00102B7
:1016F0001A601A6842F004021A601A6822F0800226
:101700001A601A6842F480721A601A6842F4007211
:101710001A601A6842F040021A60704700300140B7
:10172000074B9B6813F0020FFAD0054BD860044BAF
:101730009B6813F0010FFAD0014BD86880B2704754
:101740000030014008B5012208210020FFF79EFD6E
:1017500000231A4608211846FFF7DAFD01220A2164
:101760000020FFF793FD00231A4608211846FFF7D3
:10177000CFFD012209210020FFF788FD00231A4632
:1017800008211846FFF7C4FD08BD08B501220A214B
:101790000020FFF75FFE012000F0F2F800220A218E
:1017A0001046FFF757FE012000F0EAF808BD38B5F3
:1017B00005460F240BE045FA04F202F0010208216D
:1017C0000020FFF747FEFFF7E0FF013C64B2002C6A
:1017D000F1DA012209210020FFF73CFE012000F090
:1017E000CFF8002209211046FFF734FE012000F057
:1017F000C7F838BD08B5012208210020FFF746FDD3
:1018000000231A4608211846FFF782FD012209210C
:101810000020FFF73BFD00231A4609211846FFF779
:1018200077FD01220A210020FFF730FD00231A4630
:101830000A211846FFF76CFD08BD08B54FF6806019
:10184000FFF7B5FF142000F09BF84FF6C450FFF7E8
:10185000AEFF142000F094F84FF6FE30FFF7A7FF1C
:10186000142000F08DF84FF2FF70FFF7A0FF142056
:1018700000F086F84EF6FF70FFF799FF142000F095
:101880007FF84DF6FE70FFF792FF142000F078F815
:101890004BF6C470FFF78BFF142000F071F84FF483
:1018A000FF40FFF784FF142000F06AF808BD08B578
:1018B0004FF47E40FFF77BFF142000F061F84FF6F5
:1018C000C450FFF774FF142000F05AF84FF6A2300E
:1018D000FFF76DFF142000F053F84FF29170FFF7FF
:1018E00066FF142000F04CF84EF68970FFF75FFF9A
:1018F000142000F045F84DF68670FFF758FF1420CD
:1019000000F03EF84FF43F40FFF751FF142000F085
:1019100037F84FF4FE40FFF74AFF142000F030F88C
:1019200008BD0000024A136823F0040313607047E7
:1019300010E000E0044B00229A6058601A6842F000
:1019400001021A60704700BF10E000E0024B186807
:10195000C0F30040704700BF10E000E010B1012864
:1019600006D07047054A136843F0020313607047BE
:10197000024A136823F002031360704710E000E08E
:1019800010B504460120FFF7E9FF6000FFF7D2FF22
:10199000FFF7DCFF0028FBD0044B1A6822F001029D
:1019A0001A6000225A609A6010BD00BF10E000E08B
:1019B00008B5064B1B6823B19847054B1B78012BD4
:1019C00000D008BD014B00221A60FAE74801002050
:1019D0004501002010B50446012205211046FFF7FD
:1019E00039FD2046FFF79CFE10BD10B504460022CD
:1019F00005210120FFF72EFD2046FFF791FE10BDC7
:101A000008B5012206211046FFF724FD6420FFF7E8
:101A1000B7FF002206210120FFF71CFD0120FFF780
:101A2000AFFF012206211046FFF714FD6420FFF7E7
:101A3000A7FF002206210120FFF70CFD6420FFF71D
:101A40009FFF012206211046FFF704FD0948FFF71A
:101A500097FF1120FFF7C9FF0748FFF791FF3A20D2
:101A6000FFF7C3FF0520FFF7B5FF2920FFF7BDFFF4
:101A700008BD00BFC0D40100F049020038B50546DA
:101A80002A20FFF7B2FF0020FFF7A4FF0020FFF796
:101A9000A1FF0020FFF79EFF7F20FFF79BFF2B2079
:101AA000FFF7A3FF0020FFF795FF0020FFF792FF4D
:101AB0000020FFF78FFF9F20FFF78CFF2C20FFF700
:101AC00094FF00240EE035F814006FEA1020C0B235
:101AD000FFF780FF35F81400C043C0B2FFF77AFF6C
:101AE0000134A4B2B4F5A04FEDD338BD08B501223E
:101AF00005211046FFF7CAFB012206211046FFF719
:101B0000C5FB00231A4605210120FFF701FC002335
:101B10001A4606210120FFF7FBFB022204210020C8
:101B2000FFF7B4FB022205210020FFF7AFFB0222E2
:101B300006210020FFF7AAFB022207210020FFF761
:101B4000A5FB052204210020FFF7C0FC0522114659
:101B50000020FFF7BBFC052206210020FFF7B6FCA2
:101B6000052207210020FFF7B1FC08BD70B594B035
:101B700000240194204B1A6C42F080521A641B6CB2
:101B800003F080530193019B02941C4B1A6842F4AA
:101B900040421A601B6803F440430293029B0123F6
:101BA000089309934FF480030F93102310934FF47D
:101BB000A8731193042612960723139302250E95FA
:101BC00008A8FEF7FBFC0F230393049505944FF43C
:101BD000805306930794294603A8FEF751FFFFF7A9
:101BE0007BF8074BA3FB00308009FEF7B3FC3046BF
:101BF000FEF7C6FC14B070BD003802400070004013
:101C0000D34D621008B5FEF721FCFFF7AFFFFFF7D9
:101C1000BBF908BD034B01221A70034B00221A7056
:101C2000704700BF4C0100204D010020034B0222F1
:101C30001A70034B00221A70704700BF4C0100203D
:101C40004D01002008B5FFF79FFC00210846FFF773
:101C5000AFFC01210020FFF7ABFC0E210320FFF7B2
:101C6000A7FC0C210320FFF7A3FCFFF73FFF002296
:101C700011461046FFF70AFB012200210846FFF734
:101C8000A7FB002201211046FFF700FB01221146AD
:101C90000020FFF79DFBFFF7C5F9FFF7ABFD032021
:101CA000FFF7C0FC002211460620FFF7CDFC002202
:101CB00001210720FFF7C8FC0620FFF7A1FC072041
:101CC000FFF79EFCFFF700FDFFF72CFEFFF798FEE5
:101CD000FFF738FD00210846FFF752FA01210020E6
:101CE000FFF780FA00210846FFF764FA002101207F
:101CF000FFF746FA01210846FFF774FA0021012098
:101D0000FFF758FA1748FFF799FA1748FFF79CFAB8
:101D10000EE0164C01232370154D2B701548FFF76C
:101D2000ADFE2B4622464BF680311348FFF7D4F91F
:101D3000124B1B78012BECD0022B01D000BFF7E730
:101D40000A4C022323700A4D01232B700C48FFF725
:101D500095FE2B46224649F6BC410A48FFF7BCF9DE
:101D6000E6E700BF151C00082D1C00084E010020EE
:101D70004D01002014E40008942800084C010020C4
:101D8000148401081424020870470000014B1868ED
:101D9000704700BF10000020034613F8012B002AF3
:101DA000FBD1181A0138704730B5141E05469BB098
:101DB000184605DA8B232B604FF0FF301BB030BD87
:101DC0004FF40273ADF80C3014BF04F1FF33234617
:101DD000029305934FF6FF7300910491ADF80E3016
:101DE00002461E9B6946284600F072F8431CBCBFA1
:101DF0008B232B60002CE1D0009B00221A70DDE7C2
:101E000007B5009313460A46014603480068FFF7EA
:101E1000CBFF03B05DF804FB100000202DE9F04774
:101E20008E689E4282460C469046994637D88A89EB
:101E300012F4906F31D0256809696F1A6569022321
:101E400005EB450595FBF3F509F101033B449D4284
:101E500038BF1D46530530D5294600F07BFB0646AA
:101E600050B90C23CAF80030A38943F04003A38182
:101E70004FF0FF30BDE8F0873A46216900F0F8FAEC
:101E8000A38923F4906343F08003A38126616561F5
:101E90003E44ED1B2660A5604E464E4500D94E4699
:101EA00032464146206800F0EEFAA3689B1BA3600F
:101EB00023681E4426600020DCE72A4600F0A4FBCD
:101EC00006460028E2D12169504600F0F5FAC8E73D
:101ED0002DE9F04F9DB0804603938B891D060C467B
:101EE00016460FD50B696BB9402100F033FB20601B
:101EF000206128B90C23C8F800304FF0FF30C7E04C
:101F0000402363610023099320238DF82930302377
:101F10008DF82A304FF0010B37463D4615F8013B4E
:101F20000BB1252B3ED1B7EB060A0BD053463246F8
:101F300021464046FFF772FF013000F0A480099B64
:101F4000534409933B78002B00F09D8000234FF011
:101F5000FF32CDE90523049307938DF853301A938C
:101F60002F46052217F8011B4F4800F031FA049B59
:101F7000D0B9D90644BF20228DF853201A0744BF98
:101F80002B228DF853202A782A2A15D0079A2F461B
:101F900000200A25394611F8013B303B092B4DD969
:101FA000B8B10FE02F46B8E73F4A801A0BFA00F0AD
:101FB000184304903D46D3E7039A111D126803911C
:101FC000002A01DB079204E0524243F00203079229
:101FD00004933B782E2B0CD17B782A2B33D1039B97
:101FE0001A1D1B680392002BB8BF4FF0FF33023756
:101FF00005932E4D39780322284600F0E9F938B1CF
:102000004023401B03FA00F0049B03430137049371
:10201000397827488DF8281006227E1C00F0D8F960
:10202000002838D0234B13BB039B073323F007034F
:1020300008330393099B4B4409936DE705FB023278
:1020400001200F46A6E700230137059319460A250C
:10205000384610F8012B303A092A03D9002BC8D092
:102060000591C6E705FB012101230746F0E703AB15
:1020700000932246104B04A94046AFF30080B0F114
:10208000FF3F8146D6D1A3895B063FF536AF09985D
:102090001DB0BDE8F08F03AB00932246064B04A9A8
:1020A000404600F081F8EAE7D0C00208D6C0020836
:1020B000DAC00208000000001D1E00082DE9F047EC
:1020C00091461F468A680B69DDF820809342B8BFAD
:1020D0001346C9F8003091F8432006460C4612B169
:1020E0000133C9F800302368990642BFD9F800309F
:1020F0000233C9F80030256815F0060507D104F150
:10210000190AE368D9F800209B1AAB4228DC94F83E
:1021100043302268003318BF012392062DD404F106
:10212000430239463046C047013020D02368E56875
:10213000D9F8002003F00603042B08BFAD1AA368EA
:1021400022690CBF25EAE57500259342C4BF9B1A9E
:10215000ED184FF000091A344D451AD1002008E05F
:102160000123524639463046C047013003D14FF073
:10217000FF30BDE8F0870135C3E7E1185A1C302075
:1021800081F84300224494F8451082F8431002334A
:10219000C5E70123224639463046C0470130E6D024
:1021A00009F10109D8E700002DE9F04301F1430CE2
:1021B0000C46097E85B06E291746064698460C9A4D
:1021C00000F0B38022D8632936D00AD8002900F065
:1021D000B980582900F0838004F1420584F8421048
:1021E00032E0642901D06929F6D120681368050618
:1021F00003F104012AD51B681160002B03DA2D229C
:102200005B4284F843206F480A2239E0732900F0CA
:102210009D8008D86F2920D07029DDD1236843F034
:102220002003236003E0752917D07829D4D17823BF
:1022300084F84530644855E01368191D1B68116027
:1022400004F1420584F8423001238CE01B681160E0
:1022500010F0400F18BF1BB2CFE713682568181D98
:102260001060280601D51B6802E06806FBD51B88B4
:1022700054486F2914BF0A220822002184F8431011
:102280006568A560002DC0F29580216821F00401E9
:102290002160002B3DD1002D40F08E806546082A3C
:1022A0000BD12368DB0708D5236962689A42DEBF39
:1022B000302305F8013C05F1FF35ACEB0503236144
:1022C000CDF800803B4603AA21463046FFF7F6FED4
:1022D00001304DD14FF0FF3005B0BDE8F0833948F3
:1022E00084F84510136821681D1D1B6815600A06D7
:1022F0000BD5CA0744BF41F0200121601BB92268F9
:1023000022F0200222601022B7E74D0648BF9BB2A0
:10231000EFE76546B3FBF2F102FB1133C35C05F84E
:10232000013D0B460029F5D1B9E7136825686169BD
:10233000181D106028061B6801D5196002E06A06A6
:10234000FBD51980002323616546B9E71368191D81
:1023500011601D6862680021284600F039F808B154
:10236000401B606063682361002384F84330A7E763
:1023700023692A4639463046C0470130AAD023682F
:102380009B0713D4E068039B9842B8BF1846A3E7A5
:1023900001234A4639463046C04701309AD00135BC
:1023A000E368039A9B1AAB42F2DCEBE7002504F1E9
:1023B0001909F5E7002BACD1037884F8423004F119
:1023C00042056CE7E1C00208F2C00208000000000C
:1023D00001F0FF01102A2BDB10F0070F08D010F8D6
:1023E000013B013A8B422DD010F0070F42B3F6D1DA
:1023F000F0B441EA012141EA014122F007047FF0F3
:1024000000070023F0E80256083C85EA010586EA49
:10241000010685FA47F5A3FA87F586FA47F6A5FA85
:1024200087F68EB9EED1F0BC01F0FF0102F0070291
:1024300032B110F8013B013A83EA010313B1F8D13C
:102440000020704701387047002D06BF354603381D
:10245000073815F0010F07D1013015F4807F02BF56
:10246000013015F4C03F0130F0BC0138704700BFA7
:1024700010B5431E0A44914200D110BD11F8014B22
:1024800003F8014FF7E7884210B501EB020307D8C4
:10249000421E99420AD011F8014B02F8014FF8E7A9
:1024A0008342F5D98118D21AD34200D110BD13F856
:1024B000014D01F8014DF7E738B50546002945D033
:1024C00051F8043C0C1F002BB8BFE41800F0D2F800
:1024D0001F4A1368104633B9636014602846BDE88C
:1024E000384000F0C8B8A3420CD921686218934262
:1024F00004BF1A685B68636004BF521822600460FE
:10250000ECE713465A680AB1A242FAD9196858187A
:10251000A0420BD120680144581882421960DDD1D5
:10252000106852685A6001441960D7E702D90C2339
:102530002B60D3E7206821188A4204BF11685268D3
:10254000626004BF091821605C60C7E738BD00BF46
:102550005001002070B5CD1C25F0030508350C2D69
:1025600038BF0C25002D064601DBA94203D90C23F8
:102570003360002070BD00F07DF8214A14682146C8
:1025800091B9204C23681BB9304600F063F82060F5
:102590002946304600F05EF8431C24D10C233360FA
:1025A000304600F068F8E4E70B685B1B18D40B2B8F
:1025B0000FD90B60CD50CC18304600F05CF804F118
:1025C0000B00231D20F00700C31AD3D05A42E2505B
:1025D000D0E78C424B6816BF636013600C46EBE794
:1025E0000C464968CCE7C41C24F00304A04205D083
:1025F000211A304600F02EF80130CFD02560DBE7FD
:102600005001002054010020F8B5074614460E463C
:1026100021B91146BDE8F840FFF79CBF22B9FFF78A
:102620004BFF25462846F8BD00F026F8A0420FD201
:1026300021463846FFF78EFF05460028F2D0314686
:102640002246FFF715FF31463846FFF735FFE9E729
:102650003546E7E738B5064C0023054608462360B3
:10266000FEF74CFB431C02D1236803B12B6038BD3D
:102670005C0100207047704751F8043C181F002B84
:10268000BCBF0B58C01870472E2E2F73797374651A
:102690006D2F7372632F73746D333266342D6861DE
:1026A0006C2F73746D3332663478785F68616C5F59
:1026B000636F727465782E630000000000000000F4
:1026C0000102030401020304060708092E2E2F73DA
:1026D000797374656D2F7372632F73746D33326603
:1026E000342D68616C2F73746D3332663478785F83
:1026F00068616C5F7263632E6300000061626F72D9
:102700007428292C2065786974696E672E2E2E0036
:102710006173736572745F706172616D28292066E0
:1027200061696C65643A2066696C652022257322B4
:102730002C206C696E652025640A00005374616367
:102740006B206672616D653A0A00000020523020ED
:102750003D2020253038580A00000000205231204A
:102760003D2020253038580A000000002052322039
:102770003D2020253038580A000000002052332028
:102780003D2020253038580A000000002052313208
:10279000203D20253038580A00000000204C5220EF
:1027A0003D2020253038580A0000000020504320EA
:1027B0003D2020253038580A000000002050535298
:1027C000203D20253038580A000000004653522F83
:1027D0004641523A0A0000002043465352203D2011
:1027E00020253038580A00002048465352203D200A
:1027F00020253038580A00002044465352203D20FE
:1028000020253038580A00002041465352203D20F0
:1028100020253038580A0000204D4D464152203DB9
:1028200020253038580A00002042464152203D20E1
:1028300020253038580A00004D6973630A000000F3
:10284000204C522F4558435F52455455524E3D201F
:10285000253038580A0000005B4861726446617593
:102860006C745D0A000000005B4275734661756C14
:10287000745D0A005B55736167654661756C745DD4
:102880000A00000000000000000000000102030434
:102890000607080981778D92898C817C80858E9FBF
:1028A0008F7F7D84847F7F8086848A8A94948885C4
:1028B00088838D8B858D797F767B8C82929B929697
:1028C000928B878D8B7B8C8C7E939E858289848571
:1028D0009084838C7E7E7F8C898687877D7F8078BD
:1028E0007B6F6E6E70747A757E7E7B7F807F7E825A
:1028F000787A778184968F838B81777A7F737D80D6
:102900007F808A8D857C847B7F8B79817671636102
:102910006D6A6B7B75747E737B7B83767C85848725
:102920008B7C7379747A7B7D72797874747A787C15
:1029300077747B737A6E75756A6C736F7070777F5E
:1029400082857D7F827D7B858188868B9985878541
:102950007883777D7C7D867E828C90878284948B41
:10296000909486736770788387868D95938A7D8A25
:102970007B6E8790878A97988D88897D8891858FCF
:10298000917C8291918E897D73888F7D857C69771A
:10299000847D7D81807A918B76828377728985862A
:1029A0009596928C7F7B80837E768486838C8E7EC8
:1029B0007B7A7B838981768184717A77616E787C7A
:1029C0007E796B646E7A7C797B8079808576717094
:1029D00069758172737B79757E84737A78737F7978
:1029E000848282837067746E6D7C776B738C828B4C
:1029F000917C72807F848A868A89908B897B85838B
:102A00007C87786C7F747C958780818D7F93927CA6
:102A10007D807F73727476738588777A8B7F8897D1
:102A2000817E8C828096827D867B87808383778877
:102A300086838D94837F8B83677676638D887A9087
:102A4000847D81818D766F8589818293898B978939
:102A50008C87737A8F8F90907F7D76758280868841
:102A60008886837F798D7A71765F65787B737D79CF
:102A70007973717A676377857E78766F7485767EF1
:102A800076627A787A83766E8577748071757A85C6
:102A9000887A737075767D81636B7C7F8E9D92954D
:102AA00095859387818D95837F857A8D978C907C92
:102AB0007582828990878694827A7F73728B917FE8
:102AC000797A73868E8B806A6F7C8887887F8B810A
:102AD00088986A647E878C837B6E74888E917A6F07
:102AE00071879394867E7E6A7E72636E7781868616
:102AF000797C8A8696896E80878C8893918A899062
:102B000098787C8E91988C7F797F7D87937677807B
:102B100085918975757F6D7C7659676D8587817321
:102B200067706D867662717A7B8784767A6E6D794E
:102B3000646172777E7F766F7C777A7D6D696D7563
:102B40008381737C8373818068767E8E8E968D8A76
:102B500097889A8B73778490988E7C8583898D7BF8
:102B6000797F84929B917F89878288796F707F8B30
:102B700091858B8F81827E73737D84858D82848C19
:102B800084888071707F8B938385817A837E716F57
:102B90007C7E8688796C737B77787067768290907C
:102BA0007F83898B8A83838185909784838C898DA9
:102BB00092908185888A8A868A8F817E7E787674D3
:102BC00077818D7D76777A7C7E7A7771727E7B785D
:102BD0007C71727D766E6C7678857C727378757D8B
:102BE0007D68717083847376786E7477776F636DA8
:102BF000757E7C7B7C807D8B7F7D87818D938E88AD
:102C0000857E868C8A7D79888E8A8988827D8D8E64
:102C1000877A8491868B85877B7D80757D7C828D8C
:102C2000909086877D8E967F857D82868C827F813F
:102C30007A818390747D8A898C7E82767A88837685
:102C40006F6F7A7C7C7D747083857981787B7A85DF
:102C50008B8B867E8D8C8882818486887F9187800D
:102C60008D878980898C8B877E7B6F758178717366
:102C70007F7681837975748171776971757E8274CD
:102C800078737578828070738285867C7D6E6E75B0
:102C90007C71707B6E7D7D7E6E67737875737871E5
:102CA0007B89817F7E7C7A8598838486958B8385DA
:102CB000757D7D937D7683858F898A7D798C8678F5
:102CC0006F888A7F9E86806B80807486878A7492E4
:102CD000898896AB98989276686169778A7E7A68D7
:102CE0008591A398A1A99C8879725A778A8961767F
:102CF00076727B7975829C988683976C5578A787C6
:102D00006A859081787F9797828C94A2937D768C48
:102D10008063636771707E8B77798CA2947C805E10
:102D20005C64776B6D867B7A73725D64888C85A535
:102D3000A48157556A617F887688AB8E5A4C72841D
:102D40006760727E8C907679908B585F88939383BE
:102D5000868C838F785A6F8B9486948D87806F6B67
:102D60007697A1957F848D736C887C6A758D867D3E
:102D7000848A838A987487A0927170788B8180800E
:102D800060768697808A8A79748D8A90A192846809
:102D900080A592617C706F71807E81959174668848
:102DA000707B80988272919C71718281807790850E
:102DB0008EA5976C947E768A93957F8295925A77AA
:102DC0007969667E857E81897B757F7E79747F5D7A
:102DD000678C986B636866625F747A72838E6B76B9
:102DE000898076827172778D88707575695E756E6F
:102DF000798F98746D7C7E82858C7F707E937C74D5
:102E0000808C8489817A8DA3A78D8F89848B9890FB
:102E100072819C8E72676C7D83878B7A88947C7EAE
:102E2000978A777D807B6F8B8B72747A7D7C7E8BAB
:102E30008285947C6E808C87928883717D97836F66
:102E4000757C767F767C809D95665C7B8D8B8C8A8D
:102E50007D6D8A817D7F87908B7C867E80A08E7F32
:102E60008899818A8C95928E897673738A83787417
:102E70007078967C6B627F937D6E6F746D857473D2
:102E8000626C6D696F707782817668648B8C897FE4
:102E9000725F797D87786B786F6D697672888375DC
:102EA00064838E847B817A78767491819495907412
:102EB00078748E93938D7F9F9A94838B768281888A
:102EC0007F7A848586807A7E8B8189778E95907DC6
:102ED0007D7D767376858085868784847B7D7C8105
:102EE000718198988E7E767475727F8083868076E5
:102EF0007B7D85817A7071888D867F807768687226
:102F00007F8F9086888B86837E848F8A8C95928F24
:102F10008A8D827E7C768994917B787E7B71767CAB
:102F200075818E857B78746E6473707C8480716E1D
:102F300076726A65756C75868D86827B7262636B4C
:102F40006A84917F6667717769726F73868F8C86EA
:102F50008580786A746D73969C8C85888571798478
:102F60008085969F9A95928B747979758B9D9080C8
:102F700082917C6D75797E8E9890918D8669737B38
:102F8000737A8D908379868B787C757B7F92938A18
:102F900087907A7881757380958777738771717D53
:102FA0007C7A80828584827A677775777C9698832D
:102FB00077918679867C848F9C998D8793727177BF
:102FC0007C7E8B948B8181896C7372787C868888F7
:102FD0007D816F5D76727274888780777D6563719D
:102FE000707B7D7F7D828586656C7174777C867E43
:102FF0007878786C716C72788183878C8C7B707632
:1030000070767C878C8B8685777F847F888C938F86
:1030100092988D7B7F85837F80888888817776836F
:103020007E838C908A868E8679707C7F888A8D8755
:103030007C837C747D8380898D91898F8F83757A61
:103040007D7A7F808B8884797677807A757C848797
:103050008488877D7479747B7A82898D8D80787D70
:10306000857E8488929193948B7C7B7F80818189FB
:103070008A8882807A7F7673787C8282837D7A7474
:1030800078717573747C7A76706F767C736D677007
:10309000787F828079767D7F7A6D747D7E7B78788B
:1030A0007B7F7C727173747D7F7E7D80888D8A8B3F
:1030B0008A80827F7E8788808088929088858284BB
:1030C0008182858480878C81796C75858B857E86ED
:1030D0008E8B8D8071747A83828683868A8A7E78CD
:1030E0007F83827C80878A888B86837C7D85887EAF
:1030F0007B8284868285827D7472767B7C7E7E86EE
:103100008A85837D7E7F87857C7580898E90898581
:103110008F948D877F85818485868383898A817B4F
:103120007D7B827F78757A79796B6F746F7578782B
:1031300070706E71737A7A7C7C7C7877736B6B714C
:10314000807D7A7982857F7770666A7D807F7E79DF
:1031500077827F7A757C8586838082818987827D6C
:10316000807E80847D7B7D878F928D908B85868C01
:103170008A807E8083878A8785818583837C778028
:103180008A908C868185848178737980868887800F
:10319000787C807A7B808485837F7D7B74767F8852
:1031A0008A8B8D8A84807B73686C7B848B8F8B8603
:1031B000898980797D83858A90918A8482838385B9
:1031C000898A8A827E7E83817F7C7D7E81827E7CED
:1031D00077736D6B707D7D8388827B7D7E6E666B81
:1031E000736D737C7F7A77797A7778767177737776
:1031F000787C766C6F7273787F7E817D7A72737360
:103200007B818486838381867C797F8282878C8D93
:103210008984817E8282888A918F898A8C867E8346
:10322000868687878589898A808180808183888551
:103230008784847A7579807E81858686827F7D8089
:1032400081817F837E828484827776777980858787
:103250008A837E787C8283818388878783827D7C52
:103260007F848384858B8F8882808685898A8986FE
:10327000868580807E7C7E7D78787575767F858872
:10328000817A7B7B8583756B6B6C6E777C7A7A7CBD
:103290008889807971716F7370696D7277777168E1
:1032A00061666969747B7F80827F7F837B7E837A9E
:1032B0006C7E8C8E89858E8D9DA6A99589826D6D7B
:1032C0007F766F8589969384897A7A888A776884ED
:1032D0007C91A2B0B5ACA489908F7F624F31314010
:1032E000618083A2B8C3BFB39E827671685C545577
:1032F00060656D7A7E92ADB7B3A89B847E919397FB
:10330000938B8D8888888781777A756C74747077D1
:10331000879497867D7E7F81786D61616B6F717E0A
:10332000858A8F95A29B909693867F7972727C8313
:1033300084828078756E696B5D55555C63706F69CA
:10334000726C6A635C69716E656D78767E7F6C689D
:10335000655F626D848C949AA5A29D9E9083757B17
:103360007D797A77777E8A8D8A867F7B7E7F807F64
:10337000737279757A8D9A98939992878B82797402
:10338000797776849195919C9A8F90958B7D7E79B3
:10339000686D79797E868C847D7E79757776727496
:1033A0007E7C75838F8A8183817A7B878776777A23
:1033B0007A7C8C8D83868B90858A82747B7E8584D3
:1033C00086847B858E8C848281797D7982817974F3
:1033D0006E809499948D857874817E6E6468708017
:1033E0008A8D85787F807D7774767B7C7F7E7C7A02
:1033F000746F6F6C696B6B70727577736865636BF4
:103400008996908C85817B7A766C6C6C7289A1A68A
:103410009E8E878783847E75777F898E897D7D8266
:1034200081818786838A8F8A87847C7C6F7C999E42
:10343000A0927E71717B74696C6E81969C9E908F58
:103440008B84868681818889837F7C777D80848157
:1034500080827973787571706C6B6E8C9B99928495
:103460007B6F75867F7A818087979E95897E787835
:10347000818B8D85878A888684817E858582757318
:1034800076767D7D7D7A78796969818C90877C6E8E
:1034900062727A716B6A69788D958C7D7A757476B3
:1034A0007F79707378787C7C7974787772716B73BC
:1034B000757A827F726D687D939FA393827B747F00
:1034C0008B7E7F7A7D869AA2998772747F858C9392
:1034D0008E8D918F888C85828682817B76787F7EA7
:1034E0007D726B5F6F919AADA0887B7076817C7ADC
:1034F000787A889B9F93866E6B6F788A8C8A8C898A
:103500008B87817E7A7C7E7E82817673747F7B77E7
:103510006E74929BA79D897B6E6F797A7B7E8A9170
:10352000999D98907B77717179848581828285815C
:103530007D7B787D8279726D706F6B70706264785C
:10354000809693857D6A686F72767B726D7C878EBC
:103550008B766A666B73747374797E8488848181D8
:103560007D7A7C7F7D78767C786F7188909E9F8E47
:10357000887D7E85898480787B889699968D8581E3
:103580007D7C8188898A848889868C877D79797D0C
:10359000797575746E7075858F9CA1928774767F2E
:1035A000848178757785909395897F777173757A23
:1035B0007D828584858785807F8185827B7B7C7DFC
:1035C0007C78737F84949D9191847F81817B7E80C0
:1035D0007F888C939890867873757A827E7B7A7ECA
:1035E00082867D7273747774757269635D5C6D7ABF
:1035F0008A9487857A747A7A76706B686E76818D14
:10360000878074666669747A7B7D7D818686818118
:103610007F7A75777E7A78706B7A8396A79D988D7E
:1036200084878B857E79727A82909D99948C827E34
:103630007C81818286888B8E8E87817D7B7777786F
:10364000746F68697A818E9E98998E848183807D5B
:103650007A7375767D8D918D8A7F79777C80838072
:103660007C7C8087898A827E78767C7D7773777D83
:103670007F888D908F8E8C8A8D8A867A797C7981ED
:1036800089898A8986807B7A7C80818179797A763A
:103690007472736F6E70716D6B74747376777B7AFE
:1036A0007E7E7C8085827876716C6E7072727476A4
:1036B000737373797D7D7E7B8188898783817E7D2D
:1036C0007E7E7D8087837B78797E84888B888A8ED6
:1036D0008F8B8C8D89878688898A8C898582828860
:1036E000898A858388837E7C807D7C7976767980E3
:1036F0007F817B7A7D7D8385848A8D88878A888B8C
:103700008B84817D80817D7D7A7A7D80807F8183BD
:10371000827D7E7D7B7A787B828680827C7C7E80C7
:10372000858889868D8C8B8C88868A858587878815
:1037300084847D7A78787C7E7F7C7F7B75747775D6
:10374000716C6B736D767875736E6E73787C817B3C
:103750007F7E787B7F7C7C767479747777777672DE
:10376000707174787C82888280807E7C7B7D7B7F98
:103770007E81817F7D828787908D8D948F8D9290C1
:10378000908D878A8988868484827E7E80838481E6
:10379000827F7C7C7D7A787E77787F7C8283808351
:1037A0008482898A878C8A878584858682838180C2
:1037B0007C787D7C7C7B777B7B7A7E7F82817F7D42
:1037C000787B827D82878685807F8482848B8486D5
:1037D0008583888B8A8D88848A848787847E7C7A97
:1037E000777A7E7F7B7872747473757375736E727B
:1037F00073787872757875797F7E837F777A7B7737
:103800007B7778797274747472747571717374796A
:103810007D7D807F7C7D7B7F8180838085827E84AF
:1038200088868B908A8E8F8C8E8F89888483848102
:10383000848A8A8282817D7C81838583828182825F
:103840007F7A7A7C787D7E848481828382878E8B66
:103850008C8E878788828183827E797A7D7C7D7F4A
:1038600085807C7C7F80857E757878746A737C81A6
:103870007D7E7F8A8F877872777C7F7E8C85827051
:103880006A71829082756D7E867C7476839EA9A90A
:10389000A7A79B958D897558524D555B849B9F9525
:1038A000888EA0AAAFA0847F7C7C604A556D72642C
:1038B0006A83998781A3ACB09C928D75655A7074A8
:1038C0006B63666971737877889E9FAA99A08974E3
:1038D00069605C566F78706F776C787E868097B47D
:1038E000A283738A857D6D585C80826249486174C9
:1038F0006B6D7C7D7D718196A08B7579858C735BFA
:103900006072817E78889CABABB0BDBEAFA3A1A630
:10391000A9A09B948F7D788399A4968F939E9EA84F
:103920009E948F786F74756E6E5E565D606565648B
:1039300069757778736B6D74797C78675F545561BE
:103940006C6C706D6E6D6C7378838F99827A7874FD
:10395000706C6E6E74746768747D87787175777734
:103960007B7F838279757A81898B847F7F969E9B0A
:103970009996939DA09CA99F9F9E8A838A8E949BD3
:10398000968C8A9399988B8988898A8C9E9C918140
:103990007375726C68706B636766616055504E57E3
:1039A000617C82686865686B727B857C767A7D88CD
:1039B00086807D7A757B8A9D9E93898689919D9A62
:1039C000979693898C8A8487817A8996A0B7A099E3
:1039D0009A847D8B9193917F7E86919190898B893A
:1039E0008386A2B1A097847C7A827F79726C6968A1
:1039F000665F59524E58696E7F6D5F6155556468B8
:103A0000675F565F6A7573726465686E7B8F8F82BD
:103A10007B798588948E85777678808784837B759B
:103A2000849C9CB5A48F8F857F888F888779848CB0
:103A3000938B85777B858898A1A9A09A959A939076
:103A400086868A8A82807F78716D6D7E9692A7982D
:103A500081786C6571726B6E676D757D7E7D646655
:103A6000667186929587786F7673817E75727776A8
:103A70007B7E83827C767F9296AFA4907D78757FE3
:103A80008080827880878F928C7A80777A889295EE
:103A90009386868B7C837F7C7D807A7B76746B6952
:103AA000708FA0A0A496856E6F6F766D665C5F6A5E
:103AB000757371645667656F7F8287866C6F7576E4
:103AC000797B70706C68696A6E6D75819A9BA9A12B
:103AD0009789837F7C7B777C7B898E9080827E7BBD
:103AE0008383848A8991998D8C888080837D827F6D
:103AF0007A76747A78707B9193A1A096907E798182
:103B000082868982838D90898E7D71747578838891
:103B10008683777B8181888981807C7D75737475CC
:103B20006E7D9294A4988F887878837B7B7A778552
:103B30008F8C8C8E827C75797576787E8278777999
:103B40007370787D7C76796F6A696A687C898A96F9
:103B5000877F7E6F6D706166717A8697938A8881A0
:103B60007F787D7B79767D81796F6D70727A797BD4
:103B70007C7B77787B80777C8F96A69D8C83727117
:103B80007C716C6F6F78889293958F8D898984840E
:103B90007F8287837F7B7A74757D817F7E76757562
:103BA0007E7D84999EABA49694867F7E73687078A0
:103BB0007F918D8F928D8D87838287888E908B8168
:103BC0007D827D7C7B75716F707272736E73889469
:103BD000A3A1908E837D837B6F7170717F828281C0
:103BE0007E82847E7C7F7E838488877E817E7F82C6
:103BF0007A716F6B67686963677B8994958C8A813A
:103C0000787A736869696F7D8181807C7E7A777547
:103C10007173797B807D7D86898F928B81817B76A4
:103C2000736E6A6E8493A29F98918B847E7C71736D
:103C300072767D818381878A877C787472737479C8
:103C400075747980818584807C787C79797A7881B3
:103C50008D8D8F8F90978F87867E7B8182878B89D2
:103C60008D9093948F8F8E8A8685827E767A8182DC
:103C7000888A89898B8B8A848482828887898587D0
:103C80008A857E807F7C7E7C7C7A797C7C7D7E7858
:103C9000777A7A787274736A6769676A6D6B727221
:103CA000757B7A7B797575797A757276716E7271BA
:103CB0006F7276797D8186857E7E7D7D838889851C
:103CC0008485817B7F80808585878C909594939077
:103CD0008C8C8F948D89898379797C7D7F7E7D7EA4
:103CE000808385807E7D7C7E81817D7E807A7271FD
:103CF000707072727375777F8080817F808184821B
:103D00008184857B78797777797D83878D8E8786A7
:103D1000858585888986868A8982817F7F8082835E
:103D2000878D9697929391919396928C8C8A8381AA
:103D300084858181808084898B8B8883807C80814D
:103D40007B787977716F717271706C6D707679773D
:103D50007675757373716D70716A64666968696D83
:103D60006E72797D7E7A7B7D7D7F827C787B7C78AC
:103D700075767A7D7F83848A8F908D8A8B8B8F94E2
:103D800095908E8C8880808483848585888B8E8FA7
:103D90008B888985868C8A8687847D787A7B7D7CF2
:103DA0007C7D7D85898783817E7D7F817D7B7F8111
:103DB0007B797B787C7E80848687888581837F7F02
:103DC0008382807E7F7C7576767476797B81858927
:103DD0008A87858484878A868380807B7B7F8182B3
:103DE0008383868B8E918E8B8B8A888D8A85838444
:103DF000837D7E7F7F8081807F7F8285817C7A76D4
:103E0000777B7B7776766E6B686C6C6D6E6E71719E
:103E10007473717272727475727174757270717379
:103E200074787C80828586827D7E8085898A86847E
:103E300087848281828183868487898A8C8986852A
:103E400085878B8B8483858084898B8C898A888BFA
:103E5000848B8D8D8E8B84879793949A96806E65D4
:103E6000657083806F6A6F80969890918B80747470
:103E700076796F62575666808D8985839192847BAF
:103E80008582807D7E83898C7B7176888C8C89830A
:103E90008C998D7A757F7C7774727573786C767E69
:103EA0008890898A899E9893816C6F686D69717317
:103EB000868E8D8F83867F77676D7478746E726F50
:103EC000726B666972716E777B8486807069757CAF
:103ED00080787B7D88877F81849197978E887D7A93
:103EE000747678888783827B858580706770878FFA
:103EF00099908F94A399867C626E798A979C929010
:103F0000939491887B6F6A73848485858F95927F63
:103F1000686262789091998687898C8778786770D3
:103F20007282878785839291857A736E797E7F8688
:103F30008A88877F73686D6C76908B938B818A8675
:103F40008E8379615E728B9595A090988372696774
:103F5000707C8D838074787E78716D6E6060767E03
:103F60009794888C837C696358687584868181778F
:103F7000857E76706B6D6E726B787F837A776A62FE
:103F8000655C8786A2A49C9C8A88696E6475829809
:103F9000A19A968A97867D706E787F85839290909D
:103FA0008A796D695E6E8C90A69D988C8378677116
:103FB000707E949A928E8A8E958F817E8386888376
:103FC0007F86888376665B5865899EA3A28E897BEF
:103FD000736C6C7675879194888C999C9B827271B6
:103FE0007884837E86807E7B6B685B648587928A1B
:103FF000808386856F6F6E798B8F8E8485868A89A4
:10400000766F7170787570787B76746465545C86B1
:10401000889D9188847C745D615B71808A8D8280CB
:10402000818D877A6D6A6D7878788487867D6967F7
:104030005E7A99A0B39B9D928C7C6B71728F959CDC
:104040008886848A91848070767E867E808B878144
:104050006F645F5F858F9CA0898A807F706E71829C
:104060008E95978D8F85958B8683788281867F81CB
:10407000827C756661606A87929998928E88817356
:1040800075758C999B8E858781908B8A89868A87A6
:1040900086878A8C8272625A596A7F86968D8F8B48
:1040A000897C767C7F938986756F71797875767255
:1040B0007A7E7A747976736B5F57535571757F8802
:1040C000858A7F816B746D737F787B73746E7C726D
:1040D0007A7E81878789818B83827D6D6D636A8516
:1040E000889899A19F9C9889918B908E8C7F8078DD
:1040F0007E8579838294989B918F8F89837B6D6570
:104100006061797281879394948A7B8480878684A6
:10411000777B727D7D7580828B8A8B7E7E807D75BC
:104120007469646265736C79808F9298918B8D91BC
:10413000938D8F7D81738085868D8F9593968D92DB
:104140009593807D6B645C5E6C697A829494968EA4
:104150008F8D8F8A86867F8171786F767D84838349
:10416000807A7A797B7382747165666D6D7A7B82F1
:104170008586797E797D7F82827E7B747B73787B76
:104180007F8087837F7F8586808079756D74767662
:1041900081888D9593908B84808285888887878697
:1041A000847C7F8686898C858080808187877E78E5
:1041B0007B76737375798288858A8A8C9494908DC6
:1041C0008A86848078787A7673706D77797D7C7949
:1041D000776D6A6B6B666D74737F87879394909528
:1041E0008F88827E7977797A828B8A8A83777471D5
:1041F000797B7E7E756D6B6C687683878E908B91F4
:104200008F8D969194908B8882817E7C7C7A7D7E46
:104210007F7F7D808182817D7774756F7074727A03
:1042200080808988868C87837A7879787F7D808082
:1042300080827E7C7D7A7D807C7A75727273757ED9
:1042400083838A877F8282828B8B8B837F7C7A8138
:10425000868C8988867E797A787B848585807B7B4D
:10426000797578787A868B8D928F8D908E908D8BE4
:10427000878382817E787475757175787D817C788D
:10428000736D70717077797E858483898A8C918D46
:104290008A867E7A7D828687827D7A756D72777B4B
:1042A000848179716A69696D787E828B8D8C908E3C
:1042B000888E8E8F9088837C7B7C7E808386847DB5
:1042C0007F81808585847C73746E6F77777C83842F
:1042D00086898B8A8A85837F7D81828585827E7BA4
:1042E0007A7B7A7D807E84827F756B6D6F71797D3C
:1042F0007C7F7F7D8387868B8885837C7B7D82899D
:10430000898684817F7976787B8185857D73706BE2
:104310006B7480868F928E8E8C8A8C90918C838128
:10432000808486837F7B7A777A7A7B7A78787C76CA
:1043300072737071767A7C83898B8E8F8E8C8A876C
:10434000827D7D7E83868581787877737475777BAF
:104350007B73696B706D7277777E86868A8F8A8DA4
:104360008C8D8D847A787C7F878988837E77757938
:104370007E85898980736F6D6B767879807F828C7A
:104380008D8A8E8C8D8D857D7C7D838A8986827CCD
:104390007876757A8083857D7571676977797E8493
:1043A0007E808684878883858481807D7C7E8283ED
:1043B000847F7A767172777D807F77736C67717A8C
:1043C0007F878A878D8D898D909092908A85807B5A
:1043D0007C7D7C7D7B7D7D7877797C807F7B7A6E30
:1043E0006C767C8892918E918B888A898D8B88855A
:1043F000807B7A7E8284827E7B7873706E7173722A
:1044000077756B6D7075858B898E8F8889858488AB
:104410008482817E79797A7E7F7D7A807B73736EE8
:104420007A797979706358596C8C8E93968D8688D9
:104430008C98A59C9786735B4F5F798F999397A013
:10444000ABB3ABA78454413F455F72819EA0918F6F
:10445000888A92A3A9A6AAA6A08164698AA295883F
:10446000A38D5B37405044566E93A1ABACB7BA9B5B
:10447000765E58666B67697C8C95B0A19E746963A3
:104480006F9995A9A7A0978B6B6C6F67565C766741
:1044900046425B6B6E687183A7A98B6251647E672D
:1044A0004C5C5A56546A8C9D856D74818277625B30
:1044B000717B6C596983989B959A9D90766864711D
:1044C0007E8E938982786E8394908D878E867E7F90
:1044D0007F807B7F86868277768293A0A29E999743
:1044E000A1A6A1948E8F8D96958D85817D7E8992D2
:1044F0008F83787F767A82757F83807880879C9996
:1045000088807C7B737470888F8A857C88918D8C81
:10451000857E796F6B666D686E7268717D7D7B7A62
:104520007A838F918C867C797A6F6C726C696B70F0
:104530006F6D72757274747470676061706C696AA3
:104540006D747B8C92938F8B8A8084898B8B868B06
:104550008C877C7F908D86807D827E7A787F848038
:104560008384847E7D828A8D8B8C8B9297908A8ABD
:104570008E918B817E7E80858181878A8B898580E3
:104580007F77767E7D78706A6E767D7E8387837A8C
:10459000727F8B92928B8A868786878884807D80C3
:1045A0007E7E79777C7E7F7A787B7C7A737171747A
:1045B00079777D7B8287888F8E8B827B7B7C7672FE
:1045C0006F7174787B7A7A797E818585827B777B3F
:1045D0007E807D7F7E7E776E6D727B78797B7B7946
:1045E00076797E868A8D8C88838080848A8C887F89
:1045F00082888F908D8B8C88838485837F81828550
:104600007F756F7075787C7E8283848182818184DE
:10461000868B86898683817C7E8287828082848263
:10462000848586847E7D7A7F7F828183817D757497
:104630007570717075706F7072757170737879764E
:1046400075797876767C7A7B79767A7C7F7B7C7DCF
:10465000807F7A7D838C8D8582807F7D7E8182863E
:10466000858583868B89898C91908A837F828483D8
:104670008686868383878C8B8B8C8A8783838284D0
:10468000848686878A8A83818485847F807F807CF4
:104690007A7E7C7F8387898581838A8C89898681DC
:1046A0007D79777576797E7F7C787778777779787A
:1046B000757171727476787B7B7D7A75767B807E7E
:1046C0007A77736D6C707474777D82827F80858950
:1046D0008A8A898685828385848684807E7F82809B
:1046E0007F818585837F7A777980858587878682B4
:1046F0007F848789898C8C8A8A878B8B888587863B
:10470000818181807E7C7E82807E7C7D82848688A1
:104710008C8D89827E81858788858584818184844A
:10472000817E7A797B7E7B7A7D81827D77727277DA
:104730007877787A7975757978797B7B7975737301
:10474000787A78787A7D7C7B7F8081807E807F7D9F
:104750007A797A7D7E81848584807E7D7E80838562
:10476000817D7C7D7F7E808282817F7E8084878741
:1047700086817B7B7E8285878B8E8D8A88888A8DD9
:1047800090918F8B8783807E7F81817E7C7B7978FF
:104790007B7F7F8180807E7B7F8486878A8B8A85F2
:1047A000828285888A8985827D7978787777767321
:1047B000706E6B6C7074777879787676797D807CA2
:1047C000787875737477797A7A79777575777A7D71
:1047D0007D7E7F7D7B7C7E8184858582817D7B7CE7
:1047E0007D7E7F818081828387898A898684817F9B
:1047F00082878988878887878585898B8A8684854B
:104800008482808182838081817E7D7E8083848298
:10481000807E7D7E81808083848585817F7F7E7F91
:10482000807E7D7E7F7F7F8080808183828180808B
:1048300081807D79736D6B6C6D6E70727575767538
:1048400074747576747473757A7B7B7C7D7E8082DC
:104850008384868786837F7C7B7E7F7F807F7E7E4E
:104860007F80828181818182838486888886858613
:1048700087878583818082848786858586868684EE
:10488000848484828181818284827E7B7A7B7C7D28
:104890007D7E8081838484858888888888878687D0
:1048A0008684838283838281807F7E7D7C7B777414
:1048B00075797A7977737275777878797B7C7C7C77
:1048C0007A797A7A78767472717373757579797783
:1048D0007979797C808283838283858788898987B7
:1048E0008482807E7C7C7D7C7B7B7D7F82858586CF
:1048F00085858384828082828589898B8D8D8E8C4B
:104900008B8E8C858A86857E8388797F787F7C7E76
:104910008683837C8F817B898481828C868688864E
:10492000807F847E8783848383887B7A807D717A8D
:104930007D6F778676707B756A6E706D7373787530
:1049400079777677797E757679827E807D788077C3
:10495000747E7E777D83797D7D7C7B7D807F807E8C
:1049600082808483808385828487878B8D8C8F88E7
:1049700083868688858080827C7D83818185838112
:104980008786848C8F8B898D8A898B8A868386869D
:10499000858383807F7E81807A807F7C7E81808218
:1049A000817F7D7E7F7A82848383868884868685E4
:1049B0007E7E817C7C767573707277747279737188
:1049C00070726C6D747B6E6D7E7B7677877C737B8B
:1049D00084827A8B8C827A86837B8181807E8787B2
:1049E000827C837A6A6B6976776F7989877E909DFE
:1049F0008D88959A82838F857E838A7F7E848D7D44
:104A00007A8A83868A82786A797A647D92857793B6
:104A10009B83879389636679746C7D8D8D909FAB42
:104A20009E8A827D6B5A4A3F5B74596D9FA1839D1C
:104A3000BF99849797736767666B6E6D6A72808E95
:104A4000939491877C6D5C4C5F7350577F856A8A25
:104A5000B69485928D706C706F7A7A786F76858651
:104A60008A878C83756A58565A868166849F9C957E
:104A7000BBAF928781766E7671829397898CA4A161
:104A8000918A8B8478706C777A84958A98AAA79992
:104A9000908E7A6F6A6562717F8CA0ACA48F9D98AE
:104AA00083777269564C5070849499A0A69A9A9410
:104AB0009185726161656172899796999083837C13
:104AC000757D79635251637B808797988779786881
:104AD0006363605F676A6781949A9B908173716A70
:104AE0006C7B75605A686B7480929C918F857C7921
:104AF00077767A7C7A7880929C95928F7F78737A99
:104B00007E868B7A73777F84888F968E888B868457
:104B10007F7B7C8283817E94A19897958E7C7C7824
:104B200080807D756B726F7C7A88918E8686897E97
:104B30008C8485857E7F81959F9388847D726E6D40
:104B40007676706F63636C78797C898578797C7808
:104B500074706E706E7176889C9595908981737172
:104B600072736D6D605A67737D7B879490868C8DB0
:104B700086867B7477757B82939F9A9990918A7CC5
:104B80007A7B7874756C707A878A8E9E9A939892E5
:104B90008A877C7272747B8284919897948B8B89BC
:104BA0007E797876757171716F7C84808E9598941A
:104BB0008E8B837A71707277798182878E837B770F
:104BC000746E6567737576756F696B7172718089C4
:104BD000827F7F7977766B6F727278838E91938BF9
:104BE0008079776E747C7A83837D746C6D72767352
:104BF000808C8F8D8F9188837674767C86919A9B3A
:104C00009D93897F808581858B8A8A88887F72734E
:104C10006F656F898F9598938C8179717E8A8C8C62
:104C2000918E8D908586847F7F7D7E828C8E877E1F
:104C30006F626569657B979690898276706D6A71FF
:104C4000716E727F81898C7E7B716A6B71797F80D6
:104C500079716C65636F76738697908D8A8B857A90
:104C60006C68717780889697978D7D7971767A7E5A
:104C7000828889898B8980787B79758595969792CA
:104C8000887B7970717D888F959D95958B82827CCC
:104C900074757F81888D8C8781756D7473718B9D20
:104CA000968F8D86817B6B708187858D958F8F87A1
:104CB0007B746E6C7077777D807E776D605C6861E9
:104CC0005C73847E83887D74716A6D787C7C889245
:104CD0008A88807D7C786E727D7D898987807C72F0
:104CE0006D757474889C9390908D85706973828DB6
:104CF000858B9BA4A79B978B725B62798084817F55
:104D000077797F8F9B8D7E8C9F929493836F64685D
:104D100075838B8F949A9893908672747D817F842B
:104D200091867675737C80766C738B8A8D8D7C63AF
:104D300065665E6F7B867F7F8187847E7971737005
:104D40007074776B69716E606E7777808B8D8990E8
:104D500081746A6C6D7E8F83818A90939993908819
:104D6000827E7E828183837E696779847E8291914F
:104D70008880898C8D857D8789827C8D8B8B9496AC
:104D800093848482878481837C766B74898B81860B
:104D9000948C81838E8F8D857D8382797F8A8785B0
:104DA000848A83837C797671726969636A737972A4
:104DB000717E7E7D7B7B7D7B767272747575757678
:104DC0007D8786807F868279727278747370747B37
:104DD0007E808C95827D888C8080817B7F7D7D7BB1
:104DE000858E918E928F898B847C77766F6E6C75B1
:104DF0007A7F7E8C90828B918C7E817F7A75777B97
:104E0000838C888B8E9797968F877F73706D656A7A
:104E100078767385968082918E76737570807978B6
:104E20007D8C85868F8D8F8E8C8885736F706A627E
:104E30006B716C7E9C908793927F787A6E7B79738E
:104E40007A8A8B88908E8B87817F7E76757B715B6B
:104E500061696A7F99897F96978080807275746B8B
:104E6000728C8E8C989E90868081847B726F736327
:104E7000646969859381829F9C8A8E867D776E6046
:104E80006F83858B949793948E8B8A80716E6D66F9
:104E900069686B888F7D8199998E92877D786C6126
:104EA0006874747B888C8F969391918B7C737372EA
:104EB0006F676B7D7E777F8C93908A8586877F7600
:104EC000767C76777D7E7D8084847F7A7C7F848308
:104ED000837E7B7C7C7C79797C7D7D7C7F838380F9
:104EE0007C7D79787F85848589878787898B88838E
:104EF00083857F7A7978767475757A7F7F828682EA
:104F00007B7D7D7E8182838183878A8A878988866B
:104F1000837F80807F7A7675737277807F7D7F7FD5
:104F20007A787B777A7E81828386888C8A84807F78
:104F30008081838386837D7D79787A7B7A7A7F7F8F
:104F40007E7D7E7E7D7975787E818283837F7E7A89
:104F50007D7E7E80818684888884827E7B74737364
:104F60007B7D7B7B80878384868789888785838117
:104F70007C7A797B7C7E83858589887D797870666B
:104F8000767A7177899089909691908D8480857CCE
:104F9000737C7C7377898B88868985817B6A657948
:104FA000745E6A797E788C988F8B8B8D989C817ECD
:104FB0008C856D758374676A675C6D776A7A8F7BA1
:104FC0007D9FAC9384978D85827C79726153626DED
:104FD000666679766C7D8A7A7864494D533E2F5D9A
:104FE0007F8096AEADB1BCC3C3C9C1B3B7B6B2BBC7
:104FF000D0C5A398937469696164868C717B7D6761
:10500000698D9A82706D5D5D59414B6A786B758BC5
:10501000979F9D9C9DAA9C7C84775A637D86757F13
:10502000887C8B9C8C7D79777073665B5E351F20E6
:1050300041434150514250604D6D857F6D9CAA7C2B
:10504000617889838A8187A2C4B4A1949FB5B49AF8
:105050008B918C7C7F9F9F93807F7C9AAF877C9184
:10506000A2988A8393A8A4919897816E7074787F90
:10507000857E76846C6E8B9E8C8D8D839294938EC0
:105080009D8C8B8C8D888988798B9491827D7871A9
:105090007D887173766E6B848576776E7076888383
:1050A000827268656B665860685E484B51576C62E7
:1050B0004E5F6062626B646B746758555E63665FD7
:1050C00061676F636D818C8479807E8AA297959ADF
:1050D0009DAABABBB0BDC8D5D1D1CCCFC9BAB3B5E2
:1050E000AEA4ABA99E909390838B7E7F877E727DCA
:1050F0008A7B87848373766C6D6B534B3E40353867
:10510000362E1C2D444349423A4C493D4C534F5B8B
:10511000666E706E62697E717574797C878E8E8F13
:10512000959184978B8B908C848FA5A0A1A1B5BFFE
:10513000CACBCFCABDB3B3C1ACAEA29893ACA39B4C
:10514000AE99A6ABA19BAEABADB3ACAFA4998C921C
:1051500082746460645D63645A495A4E515F596257
:10516000564E4A5B555859566C6D71768871676317
:105170006B706F766860596558715F4F5647495339
:105180006C5E6B6875878B83868D7B796E84868C6D
:105190007B7473838F89A8909399A7A3B4BEAEB292
:1051A000ABBCC4CCBCC0A08D8E848B8792878E8B09
:1051B0009E9CA3A68B918C917F9389827C7386920F
:1051C000A0949F8174767D7E8284716965736F84FB
:1051D0007165666D685C71656B5D657277767A770F
:1051E0005A58585D56605E595257545E745956521B
:1051F000635A656C696F65797F867E8872575C6BD0
:105200006B6A7F76717385778F99858D8E97889B72
:105210009D95898A9F9DA09EA990808088879AAC41
:105220009E91929F9FB6A2A1A6A3A2A1B3ABA9A251
:10523000ADA9A5ADB9B2998F98A0929FA298848686
:1052400085909A81959391868A98918A868F878F87
:1052500095928471686C6564706E68595751645298
:10526000435654524B5C625F5E6A6C5A61615647AA
:105270003A393C38454D4A4041484D5F4D57696E7B
:10528000686979787272857B747A7D726561676806
:10529000607A8B8987887984998889979A91909E7A
:1052A000A19CA4ADA49E9F9C9B9997969599ABB108
:1052B000B0B9B6A1A5B4B0B3BCC4BCB0B3B8BAC1A0
:1052C000C6BFBAB7ABA5A59D9993969E9A939A949B
:1052D00089857B77797D817C72757D828285807CF2
:1052E0007769635C5D5E585F706C6B6E605C646276
:1052F00063686B74736B707A7C7A756E695E5054F8
:10530000555157555960616966616566585E696BAC
:10531000736C6A6C787B7A776F6F6156646F7275A5
:10532000747A73767C72686B624F5B6D777B7B7F80
:10533000848C8E8D8E8A91857C88888D979FA29B88
:10534000949489848D837A82889093929AA8A8AA4B
:10535000A89D9996827F8D8D8C8D929296978F863F
:1053600086857B83939EA8B4B4B6C0BEBEB8AAA2FD
:10537000937A7B86848790928C8F8E898F948B848E
:10538000868889909995989488807876796B585E0C
:10539000605F6975777479766F6965656263676A5E
:1053A0006F76777373767973716F5E575D61647131
:1053B0007B75707170716B686B60585B64696D7040
:1053C00075727277757A796D676C6C686C757068D8
:1053D000665B57555B65666D7881858D90918D8A8A
:1053E000867E837A6D6D6E737171727575767D7B55
:1053F000787E88898B99A0A4ABA89E908F8E888B8D
:10540000867F80878D949FA5A6A29C9A958E95A055
:10541000A4A5ACAFB5BDC1BDB5B6ACA5A19B9FA1C0
:10542000A4A2A19E9A9D96928E83777A7D78858E8E
:105430009499A09C8E86847B75726560615F6267BB
:105440006565615C595857535C5F5E666D717A8320
:10545000847A76746A5B5A595958585D5D62696CF2
:105460006D6E6B63656E717A868C8B90928D888B76
:105470008A847F7B7D79767E82797B7A746F727481
:105480006B6C70757C868F94A0A29892918A8384AD
:1054900081807A747B766C747A74717670696F76B9
:1054A0007D85898A90908A817A75675E5B58595AA2
:1054B00063707071777572798177727C7F878D9553
:1054C0009EA3A5A29D9D9D939393928D8891929268
:1054D000979C97929392847C858A91959EADB1B763
:1054E000B9ACA6A1989493968C88928B7E7B7E789B
:1054F000787F7E766F77848D8D949D9EA09E9D99FA
:105500008C81756D726B69716E72777B74767E7645
:105510006C6A6E787E8183828685818285776D67ED
:1055200062636165696464686660656E63544F5A5E
:10553000666A7581898B908C8D8E837C70676765B8
:1055400065655E5C676B6873827C797D88959293F4
:105550009A9B9295948F8A827B6F6A70706E747535
:10556000767A7F848A9087827E87938A8790908ECE
:105570009696959B9C9086807D787979797A7273DE
:1055800072767A7A76738083828D938E8D908D80F9
:10559000868D827C7E7A6E6B686B6C63656F7F8AAA
:1055A00087828892918C959E9992979689817A7933
:1055B00078717271777D878C807E7A8282716D7648
:1055C000859A99A5BAD1E5E1D8BEA6795A45505B2E
:1055D00046586A70747F959AA4ABA2968373595A01
:1055E0006D707B9CB0B6BDB0845D4A3E4249698A0D
:1055F0009AACA4A0A6918E7C666066696571757888
:105600007B80776F797C758287827471787168632B
:105610006C777D7C736C685F564C4C57646D778CEF
:105620009B958B8276776655585F585B6E797C8246
:105630009392918F887F75716C727C8793958B8F15
:1056400086868D72666B6C6F7078889497959D8B4B
:105650007F7A707B7475787C858A928F86857F7F50
:105660007F757F7E8598A1A7ACAFA8ACA8A5927DD9
:1056700077747A767F888B8C817D7E78766D636097
:105680006163666C757F8487868882807C7D7A7191
:10569000727D909D9C9899908D8079716968666BF8
:1056A000727A7F888E959993868280818785888893
:1056B000817D879093949190907E7F837B7C7C7C8E
:1056C0007F86848E948C8A8A7D8082899089868068
:1056D00080828B8D8F8A7D7F8378737067656D7113
:1056E0006F706B6D7072787F7A786F68706E6C6CAB
:1056F0006B6562686D6C6D706F68656A6764616226
:105700005E5F636C7A7F807F82848789908B8587D8
:10571000848079787F81848B9599948D85807D7C38
:105720007D7C7C77757F868F91908686939095940B
:105730008F8683838D999A99968E808083838182C8
:105740007C75787F83848985868C8A8C8C8E857F16
:10575000807E847F8385817B79807E76706C6667AE
:105760006F6D6B73727C868D92908E847E797E8154
:105770007E7E7F74767D878C898B87837E8883820B
:105780008276787B7F83878D8D8E898E90858581CB
:105790008583868E8A86858A81818A837C78767CD9
:1057A000828282848080848B91908B827E777979CB
:1057B000858881817C7F81908A827F777B798284D2
:1057C0007D756D71747779797E7474787C7F76706D
:1057D0006D736E71706A70737E7C8083837E747E5D
:1057E0008178716F6D6A6D71768187848287888018
:1057F00081837C7C7974777E898B818180808286AD
:105800008678716D74787E838283848E90908B8687
:10581000807F83838986888B929E9C98988E857ED4
:1058200080766C7172787681868E93929A96918B3F
:10583000888381817D7C80838B929089827F79753A
:105840007472635D5F5E666F75777F8585898A8414
:105850007C77777C7B7A7A787C7F82837E757274A2
:10586000727370696D70787D8083838B8D8C868474
:105870008580818289868685858A898B827D7B75F4
:1058800076787C7A7E7E7E8988898B8F9695908CBF
:105890008C867F7F828483868D8E8F94908985808D
:1058A000807F7A736F726C767F8284818A89868624
:1058B00084817D787474747273706D6E71716C6BA9
:1058C00073716C727475757275767A797E837A7D70
:1058D0007B7D7F7A777678747C88898588857D74EE
:1058E00072737275767A7D7D7F888A8E90908F8EA6
:1058F000928E8D88817E8284838789868E97989602
:10590000908E857F8080796E6C727B8A8F91939266
:105910009892929189807A7E797C8280878A85822A
:105920007D7A78756D6E6B6765646C71777472766D
:105930007E7F7675737172757E8385847E7F7B7BB7
:105940007366696B6E747A7777798083888E8987BE
:10595000868D8A8887807F8287888E9895918C8AA9
:1059600086787777797B80827E878D948F8B898B01
:105970008E919493968E878384837D7E83827C79B7
:105980007D7979848382868D827B7A7A7A74737545
:105990007C7F827E82887F77767C797577756F6E63
:1059A0006F67626B72706E75776F71737A7B7B7ADB
:1059B000798488868386827E7E7C80838A8B8580BC
:1059C00084827775797873757A7E8285868A8989EB
:1059D000898D928F8E8B88828483848688908D8730
:1059E00080807E7A7C8384848784807F7F7D7B78BF
:1059F0007B7D84898B8F8F8C8888868C8B8D8B8622
:105A00007C75767275797D777C7E78777977736926
:105A1000696F737B7D80818380807A7980808383C6
:105A20007D7373716D71777471767A797C7D7C7F0B
:105A30008083818C908F918A837E7A727980828331
:105A40007D74777B77777C827A7C8382848784837A
:105A5000848A888A909296908D8989827F83888BA8
:105A60008982767A807A77808682858A8D8E898609
:105A70008281878886899092908B85827B7C8080CA
:105A8000827D6E656B6A666468686B737773737921
:105A9000757177807B7F848484827D7A777A828235
:105AA0008281817976797A746F767373787371767F
:105AB00078798289868992969291918C8983878C54
:105AC0008A8685817D83827B76767D838D8C8687B1
:105AD000827C808E8B848D9C9A939490938C858C01
